:100000000C9462010C948A010C948A010C948A016C
:100010000C948A010C948A010C948A010C947C0F34
:100020000C948A010C948A010C948A010C943C0F64
:100030000C948A010C948A010C948A010C948A0114
:100040000C94D30D0C948A010C94A10D0C947B0D8F
:100050000C948A010C948A010C948A010C948A01F4
:100060000C941D0E0C948A01000001010101000096
:10007000000100000000010001000000000100017B
:10008000010000000100000101000001000000016A
:10009000010001000000000100010000000001005B
:1000A000000001010101000000000001010000004A
:1000B000000000010100000000000101010100003A
:1000C0000000010101010000000101010101010026
:1000D0000001010101010100010101010101010112
:1000E0000101010101010101010101010101010100
:1000F00001010101010101010101010101010101F0
:1001000001010101010101010101010101010101DF
:1001100001010101010101010101010101010101CF
:1001200001010101010101010000010101010000C3
:1001300000010101010101000101010101010101B1
:10014000010101010101010101010101010101019F
:100150000101010101010101000101010101010091
:100160000000010101010000000101000001010087
:100170000001010000010100000101000001010077
:100180000000000000000000010101010101010167
:10019000010000000000000100010000000001005B
:1001A000000001010101000000000000000000004B
:1001B0000001010000010100010101010101010133
:1001C0000101010101010101000101010101010021
:1001D0000000010101010000000000010100000019
:1001E0000000000000000000000000080002010004
:1001F00000030407000000000000000001010101ED
:1002000001010100010101010101010101010100E0
:1002100000010101010101010101010101010101CF
:1002200001010100010101000001010101010100C2
:1002300000010101010101000001010100000000B5
:1002400000000000000000000000000000000000AE
:10025000000000000000000101000000000000019B
:10026000010000000000000000000000000000008D
:10027000000000000000000000000000000000007E
:10028000240027002A000000000023002600290087
:1002900000000000250028002B00040404040404CE
:1002A0000404020202020202030303030303010225
:1002B00004081020408001020408102001020408F4
:1002C0001020A10F11241FBECFEFD8E0DEBFCDBF9D
:1002D00012E0A0E0B1E0E4E6F2E302C005900D9286
:1002E000A034B107D9F723E0A0E4B2E001C01D9229
:1002F000A33FB207E1F711E0C2E6D1E004C02197C5
:10030000FE010E94E916C136D107C9F70E945610B6
:100310000C9430190C940000E091CD02F091CE02C3
:10032000CF01409611921192E817F907D9F7089575
:10033000EFE6F0E080818D7F808382E08093810012
:1003400081E080938000E091CB02F091CC0290811B
:100350008091CA028095892380831092CA020895F1
:1003600008950895AF92BF92CF92DF92EF92FF92DD
:100370000F931F93CF93DF936C017B018B01040FCD
:10038000151FEB015E01AE18BF08C017D10759F069
:100390006991D601ED91FC910190F081E02DC601AB
:1003A0000995892B79F7C501DF91CF911F910F91A5
:1003B000FF90EF90DF90CF90BF90AF90089545E011
:1003C00050E063E372E083E293E00C94B201FC013D
:1003D000538D448D252F30E0842F90E0821B930BAA
:1003E000541710F0CF96089501970895FC01918D50
:1003F000828D981761F0A28DAE0FBF2FB11D5D9653
:100400008C91928D9F5F9F73928F90E008958FEFF4
:100410009FEF0895FC01918D828D981731F0828DA8
:10042000E80FF11D858D90E008958FEF9FEF0895FF
:10043000FC01918D228D892F90E0805C9F4F821B63
:1004400091098F739927089583E293E00E9418021F
:1004500021E0892B09F420E0822F089580E090E0CC
:10046000892B29F00E94240281110C940000089528
:10047000FC01A48DA80FB92FB11DA35ABF4F2C9119
:10048000848D90E001968F739927848FA689B78910
:100490002C93A089B1898C91837080648C93938D07
:1004A000848D981306C00288F389E02D80818F7DAA
:1004B00080830895EF92FF920F931F93CF93DF9362
:1004C000EC0181E0888F9B8D8C8D98131AC0E88990
:1004D000F989808185FF15C09FB7F894EE89FF895F
:1004E0006083E889F98980818370806480839FBFFD
:1004F00081E090E0DF91CF911F910F91FF90EF90FD
:100500000895F62E0B8D10E00F5F1F4F0F7311270C
:10051000E02E8C8D8E110CC00FB607FCFACFE88947
:10052000F989808185FFF5CFCE010E943802F1CF95
:10053000EB8DEC0FFD2FF11DE35AFF4FF0829FB7BB
:10054000F8940B8FEA89FB8980818062CFCF63E7C3
:1005500083E293E00C945A02CF93DF93EC01888DF1
:100560008823B9F0AA89BB89E889F9898C9185FD2E
:1005700003C0808186FD0DC00FB607FCF7CF8C91BC
:1005800085FFF2CF808185FFEDCFCE010E9438023A
:10059000E9CFDF91CF910895833081F028F4813045
:1005A00099F08230A9F008958730A9F08830C9F019
:1005B0008430B1F4809180008F7D03C080918000F1
:1005C0008F7780938000089584B58F7784BD0895D8
:1005D00084B58F7DFBCF8091B0008F778093B00082
:1005E00008958091B0008F7DF9CFCF93DF93282FAE
:1005F00030E0F901E851FE4F8491F901E255FD4FD9
:10060000D491F901E656FD4FC491CC23A1F081119C
:100610000E94CC02EC2FF0E0EE0FFF1FEA57FD4FD7
:10062000A591B491EC91ED2381E090E009F480E094
:10063000DF91CF91089580E090E0FACF1F93CF93A0
:10064000DF93282F30E0F901E851FE4F8491F90142
:10065000E255FD4FD491F901E656FD4FC491CC23EC
:10066000A9F0162F81110E94CC02EC2FF0E0EE0FC2
:10067000FF1FE057FD4FA591B4918FB7F894EC910F
:10068000111108C0D095DE23DC938FBFDF91CF918D
:100690001F910895DE2BF8CFCF93DF9390E0FC01FC
:1006A000E255FD4F249186569D4FFC01849188238D
:1006B000D1F090E0880F991FFC01E458FD4FA591FF
:1006C000B491FC01E057FD4FC591D49161110EC06A
:1006D0009FB7F8948C91E22FE0958E238C9328811C
:1006E000E223E8839FBFDF91CF9108958FB7F894FD
:1006F000EC91E22BEC938FBFF6CF1F93CF93DF9358
:10070000182FEB0161E00E944C03209739F460E060
:10071000812FDF91CF911F910C941E03CF3FD10504
:1007200011F461E0F5CFE12FF0E0E851FE4FE491E4
:10073000E33031F140F4E130B1F0E230E1F0C038C3
:10074000D1057CF7E4CFE73029F1E83059F1E43006
:10075000B1F780918000806280938000D0938B00FD
:10076000C0938A0004C084B5806884BDC7BDDF9192
:10077000CF911F91089584B5806284BDC8BDF7CF25
:1007800080918000806880938000D0938900C0931E
:100790008800EDCF8091B00080688093B000C09356
:1007A000B300E5CF8091B00080628093B000C09329
:1007B000B400DDCF3FB7F8948091B5029091B602B6
:1007C000A091B702B091B80226B5A89B05C02F3FF3
:1007D00019F00196A11DB11D3FBFBA2FA92F982F67
:1007E0008827BC01CD01620F711D811D911D42E062
:1007F000660F771F881F991F4A95D1F708958F922A
:100800009F92AF92BF92CF92DF92EF92FF926B01D5
:100810007C010E94DA034B015C01C114D104E104A4
:10082000F104B9F00E94DA03681979098A099B0971
:10083000683E73408105910580F321E0C21AD1081A
:10084000E108F10888EE880E83E0981EA11CB11C17
:10085000E4CFFF90EF90DF90CF90BF90AF909F904C
:100860008F9008952FB7F8946091B1027091B20201
:100870008091B3029091B4022FBF089520918D0210
:10088000260F3327331F21323105ECF42091F90272
:10089000FC0190E080E0243069F082E00895A091AE
:1008A0008D022191AC0143595D4FA40FB52FB11DAD
:1008B0002C930196861798F380918D02680F6093B0
:1008C0008D0280E0089581E008951092F90281E0A0
:1008D0008093F8021092D30261E082E10E941E032D
:1008E00061E083E10E941E03E9EBF0E080818E7FEE
:1008F000808380818D7F808388E48093B80085E445
:100900008093BC000895CF93DF9391E090936C02A5
:100910008823B9F0C091B800D091BA008091BC0092
:100920008A7B8093BC0060E082E10E941E0360E04D
:1009300083E10E941E030E946504D093BA00C09315
:10094000B800DF91CF910895CF92DF92EF92FF929E
:100950000F931F93CF93DF93D091220381E0D13285
:1009600008F09CC0C09121030E94DA036B017C0156
:100970008091F90281116CC082E08093F90281E0DC
:100980008093F8028FEF8093F7021092F602D093D3
:10099000F502A1E0B3E0E5EDF2E080E0D8138DC010
:1009A0001092D4028091D402CC0FC82BC093D402F1
:1009B0008091D302813009F084C01092D3020E944A
:1009C000DA036B017C018091D4028093BB0080919B
:1009D000FB029091FC02A091FD02B091FE02892BD6
:1009E0008A2B8B2BA1F00E94DA030091FB0210915D
:1009F000FC022091FD023091FE026C197D098E09E6
:100A00009F09061717072807390708F442C0809185
:100A1000BC0083FDD8CF85EC8093BC000E94DA0334
:100A20006B017C018091F902823009F44CC0809105
:100A3000F7028F3F09F469C08091F702803209F410
:100A400066C08091F702803309F463C084E026C059
:100A50008091FB029091FC02A091FD02B091FE02F8
:100A6000892B8A2B8B2B09F483CF0E94DA03009108
:100A7000FB021091FC022091FD023091FE026C19E4
:100A80007D098E099F09061717072807390708F0FF
:100A90006FCF8091FA020E94830485E010920003D8
:100AA000109222031092FF02DF91CF911F910F91BC
:100AB000FF90EF90DF90CF9008959D9191938F5F7D
:100AC0006DCF85EEA9CF8091FB029091FC02A091A1
:100AD000FD02B091FE02892B8A2B8B2B09F4A2CF49
:100AE0000E94DA030091FB021091FC022091FD02AA
:100AF0003091FE026C197D098E099F0906171707B0
:100B00002807390708F08ECFC4CF80E0C7CF82E036
:100B1000C5CF83E0C3CF0895E091BE028091BD02AE
:100B2000E81730F4F0E0E45BFD4F808190E0089539
:100B30008FEF9FEF08959091BE028091BD022FEF3D
:100B40003FEF981748F4E92FF0E0E45BFD4F208178
:100B500030E09F5F9093BE02C90108958091BD026D
:100B60009091BE02891B990B0895CF92DF92EF926C
:100B7000FF920F931F93CF93DF937C01CB018A01E8
:100B80002091FF02222389F0EB016B01C40ED51ED8
:100B9000CC15DD0569F06991D701ED91FC910190CB
:100BA000F081E02DC7010995F3CF642F0E943E0428
:100BB000C801DF91CF911F910F91FF90EF90DF90CF
:100BC000CF900895CF93DF931F92CDB7DEB769839F
:100BD0002091FF022223F9F020912203203258F0C5
:100BE00021E030E0FC013383228390E080E00F902D
:100BF000DF91CF91089580910003E82FF0E0EF5F3F
:100C0000FC4F998190838F5F809300038093220330
:100C100081E090E0ECCF61E0CE0101960E943E04BD
:100C2000F7CF682F80EC93E00C94E205682F80ECFE
:100C300093E00C94E205EF92FF920F931F93CF93F2
:100C4000DF938091CF0291E09093FF028093210384
:100C5000109200031092220390E080E00E9416069A
:100C600010E007E08091D1028823C9F1802F811B19
:100C700090E0880F991F2091CD023091CE02820F13
:100C8000931FFC01C081D1818091D202882379F029
:100C900020E190E080E0880F991FAE014170552758
:100CA000842B952BD695C7952150A9F7EC017E0191
:100CB000FF248091D0028823A1F08D2F90E00E9424
:100CC0001106C7010E9411061F5F183059F6DF9107
:100CD000CF911F910F91FF90EF900C94A404812F5E
:100CE000C7CFC7010E9411068D2F90E0EBCF9091E6
:100CF000CF0221E02093FF02909321031092000382
:100D000010922203806E90E00E9416060C94A404B8
:100D100090E080E008958F929F92AF92BF92CF9221
:100D2000DF92EF92FF920F931F93CF93DF93D82F11
:100D30006A017B014801590160E079E08DE390E0B0
:100D4000A70196010E946E1669017A0181E0C81A16
:100D5000D108E108F108C1E0C114D104E1E0EE06D8
:100D6000F10450F0CD2CDE2CEF2CFF24F1E0CF1A53
:100D7000D108E108F108C4E081149104A104B10490
:100D800009F462C00E943204860E971EA81EB91E86
:100D90008092480290924902A0924A02B0924B027D
:100DA0008091CA02811125C08D2F90E0FC01E2558F
:100DB000FD4F24912093CA0286569D4FFC01349129
:100DC000E32FF0E0EE0FFF1FE057FD4F45915491E8
:100DD0005093CC024093CB02FC018491E82FF0E0C9
:100DE000EE0FFF1FE458FD4FA591B491EC912E2B0F
:100DF0002C93D0928700C0928600809184009091BD
:100E00008500B0E0A0E0C816D906EA06FB0620F48B
:100E1000D0928500C0928400C061C093810080E1BF
:100E20008093800080916F00826080936F00DF91DB
:100E3000CF911F910F91FF90EF90DF90CF90BF90D7
:100E4000AF909F908F9008958FEF9FEFDC0180937C
:100E5000480290934902A0934A02B0934B02A0CF5C
:100E6000CF93C62F61E068278FE00E941E0370E0D9
:100E700060E0CC2329F0609106016C0F7727771F83
:100E80008AE0CF910C947D03CF93C62F61E0682751
:100E900088E00E941E0370E060E0CC2329F060919E
:100EA00005016C0F7727771F89E0CF910C947D03A4
:100EB000CF93DF9366E481E00E94440766E480E01C
:100EC0000E943007C3ECD2E081E08C830E943204A0
:100ED0006093E3037093E4038093E5039093E60348
:100EE00080910701909108019E838D83DF91CF91BE
:100EF0000895CF93DF9366E480E00E94440766E4A0
:100F000081E00E943007C3ECD2E081E08C830E9434
:100F100032046093E3037093E4038093E5039093BA
:100F2000E60380910701909108019E838D83DF91F4
:100F3000CF910895CF93DF9366E480E00E94440749
:100F400066E480E00E943007C3ECD2E081E08C834D
:100F50000E9432046093E3037093E4038093E503FB
:100F60009093E6038091090190910A019E838D83FD
:100F7000DF91CF9108950E948C010C941B0660951F
:100F8000677070E0660F771FE091CD02F091CE029E
:100F9000E60FF71F20813181582F5F7081E090E0CC
:100FA00002C0880F991F5A95E2F7442331F0822B33
:100FB000932B918380830C941B06809590958223BC
:100FC0009323F7CF9F92AF92BF92CF92DF92EF928F
:100FD000FF920F931F93CF93DF93F82E07E010E05B
:100FE000D0E0C0E05E01EC2E6801A016B1067CF4F2
:100FF0004F2D6E2D8A2D0E94BF076AE070E080E0C1
:1010000090E00E94FF038FEFA81AB80AEDCF5E01AF
:10101000902E4F2D6A2D892D0E94BF076AE070E047
:1010200080E090E00E94FF038FEFA81AB80AA01694
:10103000B1067CF358014F2D692D8A2D0E94BF0700
:101040006AE070E080E090E00E94FF0381E0A81A6F
:10105000B108CA15DB057CF34F2D6C2D8E2D0E9437
:10106000BF076AE070E080E090E00E94FF0381E04B
:10107000C81AD108CC15DD057CF321960150110961
:10108000C430D10509F0AECFDF91CF911F910F9100
:10109000FF90EF90DF90CF90BF90AF909F9008951A
:1010A000EF92FF921F93CF93DF937C0110E0D0E08B
:1010B000C0E0FE01EE0DFF1D85919491813029F471
:1010C00041E0612F8C2F0E94BF072196C830D105C7
:1010D00081F71F5F88E0E80EF11C183041F7DF91BF
:1010E000CF911F91FF90EF900C941B0660E081E080
:1010F0000E94440760E081E00E943007E3ECF2E0E8
:101100001182128213820895FC01808191810097DF
:1011100011F00C94B81460E070E0CB010895CF9307
:10112000DF93DC011496ED91FC916E177F0710F5AB
:101130009F01261B370B4217530708F49A01DB0166
:10114000EC0188819981E21BF30BFD83EC83AF01F5
:10115000461B570B260F371FBC01620F731F8A0FE8
:101160009B1F0E942119E881F9818C819D81E80FE4
:10117000F91F1082DF91CF910895FC012481358100
:10118000232B39F421E0FB018081882349F020E002
:1011900007C0808191810E94111921E0892BB9F744
:1011A000822F08950F931F93CF93DF93EC018881D3
:1011B0009981009759F02A813B812617370730F033
:1011C00081E0DF91CF911F910F9108958B016F5FA7
:1011D0007F4F0E944418009759F0998388831B839E
:1011E0000A832C813D81232B59F7FC011082E8CF23
:1011F00080E0E7CFCF93DF93EC018881998100975E
:1012000011F00E94BB17198218821D821C821B825A
:101210001A82DF91CF910895EF92FF920F931F935F
:10122000CF93DF93EC018617970781F0FB010081D4
:1012300011810115110539F0E480F580B7010E9494
:10124000D20881110BC0CE010E94FA08CE01DF91B5
:10125000CF911F910F91FF90EF900895FD82EC8246
:10126000B801888199810E941A19F0CFFC01808110
:101270009181009711F00C94BB17089585ED809330
:10128000BC008091FB029091FC02A091FD02B09104
:10129000FE020796A11DB11D23E0B695A79597956F
:1012A00087952A95D1F72091BC0024FD03C01092A8
:1012B000F90208954091FB025091FC026091FD02F9
:1012C0007091FE02452B462B472B69F30097A10531
:1012D000B10541F025E32A95F1F700000197A10936
:1012E000B109E1CF8091FA020C948304FF920F932D
:1012F0001F93CF93DF9304E011E0D0E0C0E0F8014A
:10130000F1908F01CE010E94EF15F81621F06F2D9C
:10131000CE010E94F7152196C730D10581F7DF91E4
:10132000CF911F910F91FF9008950F931F93CF932B
:10133000DF9304E011E0D0E0C0E0CE010E94EF15A1
:10134000F80181938F012196C730D105B1F78091C3
:1013500007019091080118161906E4F064E670E0A0
:1013600080E090E00E94FF0388E795E090930801F9
:101370008093070190930A018093090164E670E06D
:1013800080E090E00E94FF03DF91CF911F910F91C9
:101390000C947609DF91CF911F910F910895CF930F
:1013A000DF93D0E0C0E060E0CE010E94F715219607
:1013B000C11582E0D807B9F765E58FEF91E00E948B
:1013C000F715DF91CF910C9495092F923F924F9290
:1013D0005F926F927F928F929F92AF92BF92CF92C5
:1013E000DF92EF92FF920F931F93CF93DF93CDB7CE
:1013F000DEB7C057D1090FB6F894DEBF0FBECDBF20
:10140000AD961FAE1EAEAD97AF961FAE1EAEAF9798
:10141000E1961FAE1EAEE19770E060E0CE01855907
:101420009F4F0E94D208811154C0CE0185599F4F11
:101430000E94FA0883E293E00E9418021816190627
:101440000CF059C083E293E00E94F601182F65E08A
:1014500070E080E090E00E94FF031E3309F48FC02B
:101460001A8219821C821B821E821D82BE0165594E
:101470007F4FCE0101960E940C09A6961FAFA6973A
:10148000A7961FAEA797ED80FE802FEFE21AF20A13
:10149000B701CE0101960E94D208882339F1298133
:1014A0003A818D819E81BE016B597F4F820F931FC0
:1014B0000E941A19FE82ED82BE016F5F7F4FCE013E
:1014C00085599F4F0E940C09CE0101960E94360952
:1014D000B1CFE1961FAE1EAEE19768E372E0AD9624
:1014E0008EAD9FADAD970E941A19A4CFCE01019683
:1014F0000E94FA08E1CF00E068E372E0CE0185596E
:101500009F4F0E94BD08182F81113DC0002309F490
:101510003AC081E08093C302E1968EAD9FADE19722
:10152000892B31F0AD96EEADFFADAD97309721F43C
:1015300010924402E4E4F2E0E081E256E83118F56A
:101540000E2E000CFF0BE955F54F0C94E9169C0B81
:10155000E20AB40BC30A7E0BC30AC30AC30AC30A56
:10156000C30A9F0BAA0CC30AC30A6D0BC30AA20BC2
:10157000A50B050CA80BC10AC30AC30AAE0B01E0F8
:10158000BBCF0E94DF01CE0185599F4F0E943609D3
:10159000C059DF4F0FB6F894DEBF0FBECDBFDF914D
:1015A000CF911F910F91FF90EF90DF90CF90BF9060
:1015B000AF909F908F907F906F905F904F903F90F3
:1015C0002F90089541E050E070E060E0CE01855931
:1015D0009F4F0E948F0869E372E0CE0185599F4FAB
:1015E0000E94BD088111CFCF6BE372E0CE01855917
:1015F0009F4F0E94BD08882309F462C00E943204F4
:101600000091EB031091EC032091ED033091EE0378
:101610006B017C01C01AD10AE20AF30A66E481E098
:101620000E94440766E480E00E94300784E00E9444
:10163000F502892B21F585E00E94F502892BF9F44A
:1016400060E081E00E94440760E081E00E94300792
:101650000E9432040091EB031091EC032091ED0302
:101660003091EE03601B710B820B930B6C197D099B
:1016700070930801609307010E94760984CF8090DF
:10168000EB039090EC03A090ED03B090EE038C0C74
:101690009D1CAE1CBF1C0E943204681979098A097E
:1016A0009B09613777418105910508F4B7CF60E068
:1016B00081E00E94440760E081E00E94300763CF30
:1016C0006DE372E0CE0185599F4F0E94BD088823CB
:1016D00009F459CF0E94CF0956CF41E050E070E0A5
:1016E00060E0CE0185599F4F0E948F08CE01855939
:1016F0009F4F0E9484080E94FF0345CF66E481E06B
:101700000E94440766E481E00E94300781E08093F4
:10171000C7020E9432046093E3037093E403809352
:10172000E5039093E6038091090190910A0190935B
:10173000C9028093C80227CF0E949A0724CF0E9433
:10174000790721CF0E9458071ECF0E9476081BCF31
:101750000E94BB0781E08093C40215CF0E94BB07A3
:1017600081E08093C5020FCF0E94BB0741E050E0AB
:1017700070E060E0CE0185599F4F0E948F08CE0136
:1017800085599F4F0E9484086B0180E00E94770674
:10179000F601E730F10578F4E053F44F0C94E916C4
:1017A000D70BF30BF60BF90BFC0BFF0B020C8CEFBA
:1017B00091E00E945008812F0E94770668E270E055
:1017C00080E090E00E94FF031F5F1031A1F768EBFB
:1017D0007BE080E090E00E94FF0380E00E94E2074F
:1017E0000E94A702D0CE88EA91E0E3CF88E691E09C
:1017F000E0CF88E291E0DDCF88EE90E0DACF88EAB2
:1018000090E0D7CF88E690E0D4CF0E94BB0781E07C
:101810008093C60241E050E070E060E0CE0185595F
:101820009F4F0E948F08CE0185599F4F0E948408C8
:10183000613009F46EC008F462C0623009F46DC012
:10184000CE0101967C015E0195E6A90EB11C85E3EF
:10185000C82E85E0D82E772473940E94E5098091E4
:10186000C602882309F4BCCFF70162817381161682
:1018700017060CF056C0C6010E94D5167093470299
:101880006093460210914502612E672460924502E2
:10189000F701808091808114910409F4A1CF2090F8
:1018A000460230904702032C000C44085508C20140
:1018B000B1010E94F61426E636E646E65FE30E9492
:1018C00031150E94A6168B019C01A401990C660B90
:1018D000770B86E0611001C087E00E948B06C20191
:1018E000B1010E94FF030E9498010E949801F4E058
:1018F000EF0EF11CAE14BF0409F0AFCF71CF86E636
:10190000E9EAF1E0DE01119601900D928A95E1F786
:1019100097CF82E3E7E7F1E0F5CF82E6E5E1F1E09A
:10192000F1CF6115710509F4ADCF7195619571091C
:10193000C6010E94D516072E000C880B990B0E9439
:10194000F61420E030E040EC5FE30E9431150E9485
:101950009F1694CF41E050E070E060E0CE018559E1
:101960009F4F0E948F08A7961FAE1EAEA797A996FD
:101970001FAE1EAEA997AB961FAE1EAEAB97BE01B3
:1019800065597F4FCE018B599F4F0E940C0942E051
:1019900050E062E070E0CE018B599F4F0E948F08AB
:1019A000CE018B599F4F0E94840865317105E4F088
:1019B000072E000C880B990B9B01AC0125513109B6
:1019C00041095109A0E5B0E00E94241629E030E069
:1019D00040E050E00E940516CA01B9016A5B7F4FE2
:1019E0008F4F9F4F81E01FC06431710509F455C0CE
:1019F000072E000C880B990B9B01AC012351310978
:101A000041095109A0E5B0E00E94241627EF3FEFFD
:101A10004FEF5FEF0E940516CA01B9016A5B7F4F65
:101A20008F4F9F4F80E00E9444071A8219821C82C8
:101A30001B821E821D82BE0165597F4FCE01019619
:101A40000E940C0942E050E070E060E0CE01019697
:101A50000E948F08CE0101960E94840865317105AD
:101A6000F4F0072E000C880B990B9B01AC0125515B
:101A7000310941095109A0E5B0E00E94241629E08E
:101A800030E040E050E00E940516CA01B9016A5BEF
:101A90007F4F8F4F9F4F81E020C060E0A3CF643124
:101AA000710539F1072E000C880B990B9B01AC01D5
:101AB0002351310941095109A0E5B0E00E942416E3
:101AC00027EF3FEF4FEF5FEF0E940516CA01B90104
:101AD0006A5B7F4F8F4F9F4F80E00E943007CE019F
:101AE00001960E943609CE018B599F4F0E943609FC
:101AF0004ACD60E0D0CF1F920F920FB60F92112403
:101B00002F933F934F935F936F937F938F939F9305
:101B1000AF93BF93EF93FF9383E293E00E94380269
:101B2000FF91EF91BF91AF919F918F917F916F91B5
:101B30005F914F913F912F910F900FBE0F901F908B
:101B400018951F920F920FB60F9211242F938F9317
:101B50009F93EF93FF93E0913303F09134038081DF
:101B6000E0913903F0913A0382FD1BC0908180918E
:101B70003C038F5F8F7320913D03821741F0E0910A
:101B80003C03F0E0ED5DFC4F958F80933C03FF91AB
:101B9000EF919F918F912F910F900FBE0F901F90FB
:101BA00018958081F4CF1F920F920FB60F921124D7
:101BB0002F933F938F939F93AF93BF938091B102E5
:101BC0009091B202A091B302B091B4023091B002F0
:101BD00023E0230F2D3758F50196A11DB11D209349
:101BE000B0028093B1029093B202A093B302B0937B
:101BF000B4028091B5029091B602A091B702B09163
:101C0000B8020196A11DB11D8093B5029093B60252
:101C1000A093B702B093B802BF91AF919F918F91FB
:101C20003F912F910F900FBE0F901F90189526E8AF
:101C3000230F0296A11DB11DD2CF1F920F920FB696
:101C40000F9211242F933F934F935F936F937F9342
:101C50008F939F93AF93BF93EF93FF938091B900BE
:101C6000887F803609F44AC0F0F5883209F4A7C0AD
:101C700018F5803109F49BC0B8F4882309F4F9C041
:101C8000883009F494C0FF91EF91BF91AF919F917B
:101C90008F917F916F915F914F913F912F910F9015
:101CA0000FBE0F901F901895883109F488C08032BC
:101CB00051F78093F70214C0803409F49DC040F4BA
:101CC0008033B9F38833F9F68093F70285ECB0C01E
:101CD000803509F485C0883509F496C0883499F6B2
:101CE0000E943E09D0CF883909F48CC038F5883776
:101CF00029F050F4883611F0803729F683E080937C
:101D0000F9021092AF0257C0883809F47BC08039BD
:101D100019F0803809F0B7CF8091AF02803208F017
:101D200071C0E091AF0281E08E0F8093AF0280918D
:101D3000BB00F0E0E157FD4F80833DC0803B39F0B0
:101D4000E0F4803A09F479C0883A09F09CCF84E045
:101D50008093F90210928E0210928D02E091BB02E4
:101D6000F091BC02099580918D0281110FC081E034
:101D700080938D0210926D0209C0803C09F4A6CFB9
:101D8000883C09F4A3CF883B09F07DCFE0918E0217
:101D900081E08E0F80938E02F0E0E359FD4F808149
:101DA0008093BB0090918E0280918D0229C080911A
:101DB000D4028093BB0085EC8093BC0064CF9091EB
:101DC000F6028091F502981758F5E091F60281E04D
:101DD0008E0F8093F602F0E0EB52FD4F8081E9CF49
:101DE000E091F60281E08E0F8093F6028091BB00B5
:101DF000F0E0EB52FD4F80839091F6028091F50266
:101E00009817C8F285E8D8CFE091F60281E08E0FEE
:101E10008093F6028091BB00F0E0EB52FD4F80838F
:101E20008091F80281115CCF81E08093D30284EA33
:101E30008093BC001092F90226CF85EC8093BC0001
:101E40001092F9028091AF02803230F4E091AF023B
:101E5000F0E0E157FD4F10826091AF0270E0E09139
:101E6000B902F091BA028FE892E009951092AF02A0
:101E70000ACF1092F70234CF1F920F920FB60F9233
:101E800011240F931F932F933F934F935F936F935F
:101E90007F938F939F93AF93BF93EF93FF930E9492
:101EA0003204009148021091490220914A02309177
:101EB0004B02601771078207930710F00E94980188
:101EC000E091CB02F091CC0280819091CA028927E7
:101ED0008083FF91EF91BF91AF919F918F917F91FF
:101EE0006F915F914F913F912F911F910F910F90A3
:101EF0000FBE0F901F9018951F920F920FB60F9262
:101F000011242F933F934F935F936F937F938F93FE
:101F10009F93AF93BF93EF93FF93F0E0E0E00995B9
:101F2000FF91EF91BF91AF919F918F917F916F91B1
:101F30005F914F913F912F910F900FBE0F901F9087
:101F40001895CF93DF93E3E2F3E01382128288EED9
:101F500093E0A0E0B0E084839583A683B78323E178
:101F600032E03183208325EC30E03587248724EC70
:101F700030E03787268720EC30E0318B208B21EC56
:101F800030E0338B228B22EC30E0358B248B26EC37
:101F900030E0378B268B118E128E138E148EE0EC70
:101FA000F3E01382128284839583A683B78385E24C
:101FB00092E0918380830E9432046093EB037093DC
:101FC000EC038093ED039093EE030E943204609340
:101FD000E7037093E8038093E9039093EA030E9478
:101FE00032046093E3037093E4038093E5039093DA
:101FF000E603E0EBF2E02491A0EDB3E014962C931D
:102000001497E1EBF2E0E4911596EC9315978CE9C7
:1020100092E0FC013491E32FF0E0EE0FFF1FE05758
:10202000FD4F4591549117965C934E931697EDE9A9
:10203000F2E0E491F0E0EE0FFF1FEA57FD4F45910B
:10204000549119965C934E931897FC018491E82F54
:10205000F0E0EE0FFF1FE458FD4FC591D4911B96A1
:10206000DC93CE931A9752961C92529787EE96E085
:102070001D969C938E931C97E8812E2B2883169691
:10208000ED91FC911797908114968C9180958923FE
:1020900080830E9432046093CC037093CD038093BD
:1020A000CE039093CF03DF91CF910895789484B5B8
:1020B000826084BD84B5816084BD85B5826085BD44
:1020C00085B5816085BD80916E00816080936E00D2
:1020D00010928100809181008260809381008091C4
:1020E0008100816080938100809180008160809375
:1020F00080008091B10084608093B1008091B00035
:1021000081608093B00080917A00846080937A002F
:1021100080917A00826080937A0080917A00816059
:1021200080937A0080917A00806880937A00109280
:10213000C100E0913303F091340382E08083E091A9
:102140002F03F09130031082E0913103F0913203BC
:102150008FEC808310923B03E0913703F0913803BA
:1021600086E08083E0913503F091360380818061C1
:102170008083E0913503F09136038081886080830D
:10218000E0913503F0913603808180688083E0918F
:102190003503F091360380818F7D808368EE73E094
:1021A00080E090E00E94FF030E94DF0161E082E096
:1021B0000E944C0360E083E00E944C0360E084E0F6
:1021C0000E944C0360E085E00E944C0361E086E0E1
:1021D0000E944C0361E087E00E944C0361E082E1D1
:1021E0000E944C0361E083E10E944C0360E08EE0BA
:1021F0000E944C0361E088E00E944C0361E089E0AA
:102200000E944C0361E08FE00E944C0361E08FE08C
:102210000E944C031092D0021092D1021092D2026E
:1022200080E78093CF0262E070E088E090E00E9457
:1022300003179093CE028093CD021092BE021092AB
:10224000BD0210920003109222030E94650480EBED
:1022500091E09093BC028093BB0281EB91E090935C
:10226000BA028093B9028091CF02C1E0C093FF020D
:102270008093210381E290E00E9416060E94A4044C
:102280008091CF02C093FF0280932103109200033C
:102290001092220381E890E00E9416060E94A40496
:1022A0008FE00E9477060E941B060E948C0180E04E
:1022B0000E9477068CEF91E00E945008C0E08C2FBE
:1022C0000E94770668E270E080E090E00E94FF03E1
:1022D000CF5FC031A1F760ED77E080E090E00E9431
:1022E000FF0380E00E94E2078FEF91E00E94EF156C
:1022F000853541F08FEF91E00E94EF15853511F0A3
:102300000E94CF090E9495099BE2292E312C26E1DB
:10231000822E912CA12CB12C01E00E94E509809124
:10232000C302811113C00E948C0181E00E94E20768
:1023300080E00E94E20780E090E0892B71F30E9428
:102340002402882349F30E940000E6CF8091C7024F
:10235000882369F10E943204C090C802D090C9025B
:102360000D2C000CEE08FF084090E3035090E403AE
:102370006090E5037090E603641975098609970972
:10238000C616D706E806F90690F41092C70260E078
:1023900081E00E94440760E081E00E94300764E62B
:1023A00070E080E090E00E94FF030E94A70280910D
:1023B000C402882309F47BC10E943204C090CC037C
:1023C000D090CD03E090CE03F090CF036C197D093F
:1023D0008E099F09633371058105910508F4ABCF20
:1023E00027EE36E03093DD032093DC03E091DA033F
:1023F000F091DB0380819091D403892B8083E0915D
:10240000D603F091D70380819091D403892B8083E8
:10241000C1010197F1F7E091D603F091D7039081C4
:102420008091D4038095892380838091E20388235F
:1024300051F0E091DA03F091DB0390818091D403B5
:10244000809589238083E091D803F091D90380811E
:102450009091D503892309F445C050E040E0BA01CA
:1024600090E080E029E330E040E050E00E946E160A
:1024700069017A010E9432046093CC037093CD030A
:102480008093CE039093CF0380910001909101013E
:10249000A0910201B0910301A7019601281B390BFD
:1024A0004A0B5B0BDA01C9010196A11DB11D03970F
:1024B000A105B10508F4ABC1C114D104E104F104D4
:1024C00009F084C00E94BB0766E481E00E944407D3
:1024D00066E481E00E9430078091BF0280278093EC
:1024E000BF0229CF0E94DA03AB01BC018091DC035B
:1024F0009091DD03B0E0A0E08855994EAF4FBF4FFB
:10250000840F951FA61FB71F8093DE039093DF03F0
:10251000A093E003B093E103E091D803F091D903D5
:1025200080819091D503892381F40E94DA03C090C1
:10253000DE03D090DF03E090E003F090E103C616E5
:10254000D706E806F90640F788CF0E94DA03209103
:10255000DC033091DD03AB01BC01420F531F611D51
:10256000711D4093DE035093DF036093E00370938B
:10257000E103E091D803F091D90380819091D503D4
:10258000892381F00E94DA03C090DE03D090DF033C
:10259000E090E003F090E103C616D706E806F906DE
:1025A00040F75BCF0E94DA032091DC033091DD031A
:1025B000A901455051092091DE033091DF03FA0152
:1025C000E21BF30BAF01460F571F49CF260137011E
:1025D00038E0C316D104E104F1042CF488E0482E5D
:1025E000512C612C712CA7E0B0E0A301920128507E
:1025F0003109410951090E942416A50194010E9444
:102600000516D22FC7E0DC1758F410E041E06C2F1C
:10261000812F0E94BF071F5F1830C1F7C150F3CF51
:10262000C0E0CD1758F410E040E06C2F812F0E94DD
:10263000BF071F5F1830C1F7CF5FF3CF0E941B06A3
:1026400040920001509201016092020170920301D8
:1026500049E0C416D104E104F1040CF035CF0E9426
:102660009A076091090170910A01072E000C880BEE
:10267000990B0E94FF030E94601422E030E040E0CA
:1026800050E00E940516672B682B692B69F40E94A5
:1026900079076091070170910801072E000C880BE3
:1026A000990B0E94FF0347CE0E945807F2CF8091FA
:1026B000C502882309F46AC084E00E94F502EC0197
:1026C00085E00E94F5027C01209709F04DC066E488
:1026D000892B09F067E181E00E94440766E481E00C
:1026E0000E94300710E0DD24D394E114F10409F0D6
:1026F000D12C4D2D66E0812F0E94BF074D2D67E044
:10270000812F0E94BF071F5F133069F715E0DD249A
:10271000D394209709F0D12C4D2D66E0812F0E9493
:10272000BF074D2D67E0812F0E94BF071F5F183044
:1027300071F7CD2B99F0EF2889F08091C2028027A4
:102740008093C2028823D9F08CE392E00E94500863
:1027500064E670E080E090E00E94FF030E941B06A8
:1027600051E05093C502E7CD892B31F466E481E056
:102770000E94440767E1B3CF0E947608B3CF0E945E
:10278000BB076CE271E080E090E0E6CF0E9432048B
:10279000C090E703D090E803E090E903F090EA03EB
:1027A0006C197D098E099F096536710581059105B2
:1027B00008F4C1CD0E9432046093E7037093E803EC
:1027C0008093E9039093EA030E948C01D0E0C091CA
:1027D000C10241E06C2F8D2F0E94BF07DF5FD83010
:1027E000B1F70E941B068091C002882371F0C1508E
:1027F000C093C1029091C102992319F0973009F05A
:102800009ACD80278093C00296CDCF5FF1CF99E01B
:10281000C916D104E104F10408F056CECD28CE2823
:10282000CF2809F451CE1BCF8F929F92AF92BF92C7
:10283000CF92DF92EF92FF92CF93DF93EC0168810A
:1028400079818A819B81611571058105910521F44A
:1028500064E279ED8BE597E02DE133EF41E050E064
:102860000E94051649015A019B01AC01A7EAB1E497
:102870000E9424166B017C01ACEEB4EFA50194011B
:102880000E943216C60ED71EE81EF91EF7FE06C0BD
:1028900081E0C81AD108E10880E8F80AC882D98224
:1028A000EA82FB82C701B6019F77DF91CF91FF904B
:1028B000EF90DF90CF90BF90AF909F908F90089552
:1028C0008F929F92AF92BF92CF92DF92EF92FF9240
:1028D00060910B0170910C0180910D0190910E019E
:1028E000611571058105910521F464E279ED8BE5AF
:1028F00097E02DE133EF41E050E00E9405164901D9
:102900005A019B01AC01A7EAB1E40E9424166B01B5
:102910007C01ACEEB4EFA50194010E943216C60E04
:10292000D71EE81EF91EF7FE06C081E0C81AD108BE
:10293000E10880E8F80AC0920B01D0920C01E09205
:102940000D01F0920E01C701B6019F77FF90EF9045
:10295000DF90CF90BF90AF909F908F90089560933D
:102960000B0170930C0180930D0190930E0108955B
:102970001F93FC0199278827BC01E894119110321C
:10298000E9F3193010F01E30C8F31B3251F01D323C
:1029900049F4689406C00E94DF14610F711D811D07
:1029A000911D119110531A30B0F33EF4909580951B
:1029B000709561957F4F8F4F9F4F1F910895592FAD
:1029C000482F372F262F660F771F881F991F660FF6
:1029D000771F881F991F620F731F841F951F660F33
:1029E000771F881F991F0895E89409C097FB3EF44C
:1029F00090958095709561957F4F8F4F9F4F99234C
:102A0000A9F0F92F96E9BB279395F69587957795C9
:102A10006795B795F111F8CFFAF4BB0F11F460FF89
:102A20001BC06F5F7F4F8F4F9F4F16C0882311F0E1
:102A300096E911C0772321F09EE8872F762F05C0F5
:102A4000662371F096E8862F70E060E02AF09A9590
:102A5000660F771F881FDAF7880F9695879597F985
:102A600008950E9444150C94B5150E94A71538F0DE
:102A70000E94AE1520F0952311F00C949E150C9435
:102A8000A41511240C94E9150E94C61570F3959FA6
:102A9000C1F3950F50E0551F629FF001729FBB2755
:102AA000F00DB11D639FAA27F00DB11DAA1F649FF1
:102AB0006627B00DA11D661F829F2227B00DA11DA4
:102AC000621F739FB00DA11D621F839FA00D611D2A
:102AD000221F749F3327A00D611D231F849F600D4B
:102AE000211D822F762F6A2F11249F5750409AF074
:102AF000F1F088234AF0EE0FFF1FBB1F661F771F00
:102B0000881F91505040A9F79E3F510580F00C94CA
:102B10009E150C94E9155F3FE4F3983ED4F3869537
:102B200077956795B795F795E7959F5FC1F7FE2B6A
:102B3000880F911D9695879597F9089597F99F6746
:102B400080E870E060E008959FEF80EC0895002435
:102B50000A941616170618060906089500240A9402
:102B600012161306140605060895092E0394000C88
:102B700011F4882352F0BB0F40F4BF2B11F460FF17
:102B800004C06F5F7F4F8F4F9F4F089557FD905840
:102B9000440F551F59F05F3F71F04795880F97FB21
:102BA000991F61F09F3F79F08795089512161306DB
:102BB0001406551FF2CF4695F1DF08C0161617060A
:102BC0001806991FF1CF869571056105089408953F
:102BD000E894BB2766277727CB0197F90895F999E1
:102BE000FECF92BD81BDF89A992780B50895262F12
:102BF000F999FECF1FBA92BD81BD20BD0FB6F894E2
:102C0000FA9AF99A0FBE01960895052E97FB1EF4C5
:102C100000940E941C1657FD07D00E946E1607FCF8
:102C200003D04EF40C941C16509540953095219588
:102C30003F4F4F4F5F4F08959095809570956195E8
:102C40007F4F8F4F9F4F08950E949016A59F900D24
:102C5000B49F900DA49F800D911D11240895B7FF7E
:102C60000C9424160E942416821B930B08952F9215
:102C70003F924F925F926F927F928F929F92AF920C
:102C8000BF92CF92DF92EF92FF920F931F93CF9359
:102C9000DF93CDB7DEB7CA1BDB0B0FB6F894DEBFF0
:102CA0000FBECDBF09942A88398848885F846E8416
:102CB0007D848C849B84AA84B984C884DF80EE8060
:102CC000FD800C811B81AA81B981CE0FD11D0FB669
:102CD000F894DEBF0FBECDBFED010895A1E21A2E1C
:102CE000AA1BBB1BFD010DC0AA1FBB1FEE1FFF1FB0
:102CF000A217B307E407F50720F0A21BB30BE40B00
:102D0000F50B661F771F881F991F1A9469F7609546
:102D10007095809590959B01AC01BD01CF01089500
:102D2000A29FB001B39FC001A39F700D811D11240C
:102D3000911DB29F700D811D1124911D08950E9457
:102D4000A6166894B1110C94E91508950E94CE1549
:102D500088F09F5798F0B92F9927B751B0F0E1F05C
:102D6000660F771F881F991F1AF0BA95C9F714C00C
:102D7000B13091F00E94E815B1E008950C94E81587
:102D8000672F782F8827B85F39F0B93FCCF3869545
:102D900077956795B395D9F73EF4909580957095A2
:102DA00061957F4F8F4F9F4F089597FB072E16F425
:102DB000009407D077FD09D00E94EF1607FC05D0DC
:102DC0003EF4909581959F4F0895709561957F4F42
:102DD0000895EE0FFF1F0590F491E02D0994AA1BB2
:102DE000BB1B51E107C0AA1FBB1FA617B70710F0F6
:102DF000A61BB70B881F991F5A95A9F78095909528
:102E0000BC01CD0108950F931F93CF93DF93869F4D
:102E10008001879F100D969F100D1124C8010E94FC
:102E20001F17EC01009729F0A80170E060E00E94F4
:102E30000A19CE01DF91CF911F910F9108950F9341
:102E40001F93CF93DF938230910510F482E090E0DE
:102E5000E091F103F091F20330E020E0B0E0A0E077
:102E6000309799F42115310509F44AC0281B390B14
:102E700024303105D8F58A819B816115710589F16E
:102E8000FB0193838283FE0111C040815181028145
:102E9000138148175907E0F04817590799F410971C
:102EA00061F012960C93129713961C933296CF01F1
:102EB000DF91CF911F910F9108950093F10310932B
:102EC000F203F4CF2115310551F04217530738F0C2
:102ED000A901DB019A01BD01DF01F801C1CFEF01BA
:102EE000F9CF9093F2038093F103CDCFFE01E20F6F
:102EF000F31F819391932250310939832883D7CFCF
:102F00002091EF033091F003232B41F42091110124
:102F1000309112013093F0032093EF0320910F01C1
:102F2000309110012115310541F42DB73EB7409184
:102F3000130150911401241B350BE091EF03F09124
:102F4000F003E217F307A0F42E1B3F0B28173907F5
:102F500078F0AC014E5F5F4F2417350748F04E0FF5
:102F60005F1F5093F0034093EF03819391939FCFA2
:102F7000F0E0E0E09CCFCF93DF930097E9F0FC0115
:102F8000329713821282A091F103B091F203ED0106
:102F900030E020E01097A1F420813181820F931F4F
:102FA0002091EF033091F0032817390709F061C031
:102FB000F093F003E093EF03DF91CF910895EA01DE
:102FC000CE17DF07E8F54A815B819E014115510567
:102FD000B1F7E901FB83EA8349915991C40FD51FE9
:102FE000EC17FD0761F4808191810296840F951F93
:102FF000E90199838883828193819B838A83F0E0AE
:10300000E0E012968D919C9113970097B9F52D9160
:103010003C911197CD010296820F931F2091EF03EF
:103020003091F0032817390739F6309751F510928F
:10303000F2031092F103B093F003A093EF03BCCF1F
:10304000D383C28340815181840F951FC817D9074C
:1030500061F44E5F5F4F88819981480F591F5183FA
:1030600040838A819B81938382832115310509F0F6
:10307000B0CFF093F203E093F1039ECFFD01DC01AA
:10308000C0CF13821282D7CFB0E0A0E0EAE4F8E12B
:103090000C9439168C01009751F4CB010E941F1734
:1030A0008C01C801CDB7DEB7E0E10C945516FC01E8
:1030B000E60FF71F9C0122503109E217F30708F4CD
:1030C0009DC0D901CD91DC911197C617D70798F013
:1030D000C530D10530F3CE0104978617970708F362
:1030E000C61BD70B2297C193D1936D937C93CF01CD
:1030F0000E94BB17D6CF5B01AC1ABD0A4C018C0EE7
:103100009D1EA091F103B091F203512C412CF12CA2
:10311000E12C109731F58091EF039091F003881521
:10312000990509F05CC04616570608F058C0809112
:103130000F0190911001009741F48DB79EB7409117
:10314000130150911401841B950BE817F90708F03F
:1031500055C0F093F003E093EF03F90171836083AE
:10316000A0CF8D919C91119712966C901297139607
:103170007C901397A815B90559F56C0142E0C40E6F
:10318000D11CCA14DB0420F1AC014A195B09DA0135
:103190001296159780F06282738251834083D90121
:1031A0006D937C93E114F10471F0D7011396FC93B5
:1031B000EE93129776CF22968C0F9D1FF901918383
:1031C0008083F301EFCFF093F203E093F10369CF33
:1031D0004816590608F42C017D01D3019ACFCB0182
:1031E0000E941F177C01009749F0AE01B8010E94B0
:1031F0000119C8010E94BB17870153CF10E000E0FE
:1032000050CFFB01DC0102C001900D9241505040B3
:10321000D8F70895DC0101C06D9341505040E0F7AC
:103220000895FB01DC018D91019080190110D9F303
:10323000990B0895FB01DC0101900D920020E1F74C
:103240000895FB01DC014150504048F001900D927F
:103250000020C9F701C01D9241505040E0F7089589
:04326000F894FFCF10
:10326400FFFFFFFF00000078057805010000000063
:1032740000F3038000E4020800E40208004B0208A3
:1032840000EE0108000A000800EE0108000A000828
:1032940000930208000A000800930208000A0008CC
:1032A40000930208003F0308003F0308007003086E
:1032B40000DC0308007003080070030800700308B2
:1032C40000930208000A0008004B0208000A0008E4
:1032D40000E402080000000B02FCFF8801FCFF4A26
:1032E400010400B801F8FFEE01F8FFB801F8FF9FF0
:1032F40001F8FFD201F8FF9F01F8FF8801080026BA
:103304000108004A01FEFF0000060104000601084E
:10331400002601FCFF0601FCFF5D01FCFF4A01FEE3
:10332400FF06010400060108002601FCFF0601FC5B
:10333400FF8801FCFF5D01FEFF0601040006010891
:10334400000B02FCFFB801FCFF5D01FCFF4A01FC1D
:10335400FF2601FCFFD2010400D2010800B801FCE1
:10336400FF5D01FCFF8801FCFF5D01FEFF00000022
:103374000000005A02B201E701AC021802F6010A89
:103384000200000000E205B50588068B05AE059B2A
:10339400058C05312E302E30007300740078000047
:00000001FF
