:100000000C9463000C948B000C948B000C948B006C
:100010000C948B000C948B000C948B000C940405B6
:100020000C948B000C948B000C948B000C948B0024
:100030000C948B000C948B000C948B000C948B0014
:100040000C94B8050C948B000C9486050C946005F8
:100050000C948B000C948B000C948B000C948B00F4
:100060000C948B000C948B000000000024002700EF
:100070002A0000000008000201000003040700003D
:1000800000000000000000000000230026002900FE
:10009000010204081020408001020408102001021F
:1000A0000408102000000000250028002B00040494
:1000B0000404040404040202020202020303030310
:1000C00003030200760811241FBECFEFD8E0DEBF85
:1000D000CDBF11E0A0E0B1E0EAE3F4E102C0059099
:1000E0000D92A632B107D9F721E0A6E2B1E001C036
:1000F0001D92AE3DB207E1F710E0C3E6D0E004C0C8
:100100002197FE010E94150AC236D107C9F70E9445
:1001100047060C941B0A0C940000AF92BF92CF923A
:10012000DF92EF92FF920F931F93CF93DF936C01B7
:100130007B018B01040F151FEB015E01AE18BF0898
:10014000C017D10759F06991D601ED91FC9101904A
:10015000F081E02DC6010995892B79F7C501DF9162
:10016000CF911F910F91FF90EF90DF90CF90BF90B4
:10017000AF900895FC01538D448D252F30E0842FDE
:1001800090E0821B930B541710F0CF9608950197BF
:100190000895FC01918D828D981761F0A28DAE0FAC
:1001A000BF2FB11D5D968C91928D9F5F9F73928F33
:1001B00090E008958FEF9FEF0895FC01918D828D5F
:1001C000981731F0828DE80FF11D858D90E008952C
:1001D0008FEF9FEF0895FC01918D228D892F90E084
:1001E000805C9F4F821B91098F739927089581E44A
:1001F00091E00E94EB0021E0892B09F420E0822F9E
:10020000089580E090E0892B29F00E94F700811189
:100210000C9400000895FC01A48DA80FB92FB11D06
:10022000A35ABF4F2C91848D90E001968F7399272C
:10023000848FA689B7892C93A089B1898C9183700A
:1002400080648C93938D848D981306C00288F38903
:10025000E02D80818F7D80830895EF92FF920F9330
:100260001F93CF93DF93EC0181E0888F9B8D8C8D62
:1002700098131AC0E889F989808185FF15C09FB756
:10028000F894EE89FF896083E889F9898081837019
:10029000806480839FBF81E090E0DF91CF911F91C8
:1002A0000F91FF90EF900895F62E0B8D10E00F5FE9
:1002B0001F4F0F731127E02E8C8D8E110CC00FB6BF
:1002C00007FCFACFE889F989808185FFF5CFCE0157
:1002D0000E940B01F1CFEB8DEC0FFD2FF11DE35AC6
:1002E000FF4FF0829FB7F8940B8FEA89FB898081DA
:1002F0008062CFCFCF93DF93EC01888D8823B9F054
:10030000AA89BB89E889F9898C9185FD03C0808120
:1003100086FD0DC00FB607FCF7CF8C9185FFF2CF9D
:10032000808185FFEDCFCE010E940B01E9CFDF91E7
:10033000CF910895833081F028F4813099F0823094
:10034000A9F008958730A9F08830C9F08430B1F45D
:10035000809180008F7D03C0809180008F77809393
:100360008000089584B58F7784BD089584B58F7D0E
:10037000FBCF8091B0008F778093B000089580917B
:10038000B0008F7DF9CFCF93DF93282F30E0F901B4
:10039000EE58FF4F8491F901E057FF4FD491F901D6
:1003A000E255FF4FC491CC23A1F081110E949A0124
:1003B000EC2FF0E0EE0FFF1FEA57FF4FA591B4912D
:1003C000EC91ED2381E090E009F480E0DF91CF91A2
:1003D000089580E090E0FACF1F93CF93DF93282F0A
:1003E00030E0F901EE58FF4F8491F901E057FF4FDB
:1003F000D491F901E255FF4FC491CC23A9F0162FF7
:1004000081110E949A01EC2FF0E0EE0FFF1FEC55D6
:10041000FF4FA591B4918FB7F894EC91111108C0DA
:10042000D095DE23DC938FBFDF91CF911F9108958C
:10043000DE2BF8CF9091000189130BC0E2ECF0E0C5
:10044000E4919FEF90930001E13049F028F0E23011
:1004500061F060E00C94EC0110926E00FACF909184
:100460006F009D7F90936F00F4CF909170009D7FFF
:100470009093700091E09093B0009091B100987FBC
:1004800094609093B1001092B300E3CFCF93DF93C9
:1004900090E0FC01E057FF4F249182559F4FFC01F3
:1004A00084918823D1F090E0880F991FFC01E859CE
:1004B000FF4FA591B491FC01EC55FF4FC591D4912C
:1004C00061110EC09FB7F8948C91E22FE0958E23B6
:1004D0008C932881E223E8839FBFDF91CF91089519
:1004E0008FB7F894EC91E22BEC938FBFF6CF8F92FD
:1004F0009F92AF92BF92CF92DF92EF92FF92CF93F3
:100500006B0190910001891769F09F3F09F46EC05B
:10051000CF91FF90EF90DF90CF90BF90AF909F90E2
:100520008F900895E2ECF0E0C491C7FDF1CF61E057
:100530000E9446024601B12CA12CCC23D1F0F12C13
:10054000E12CC23009F0CBC04601570164E274EFE0
:1005500080E090E0A70196010E94F6092150310940
:100560004109510995E02F3F31054105510579F1C8
:1005700074F160E072E18AE790E0A50194010E94C5
:10058000F60969017A0162E17AE780E090E0A5016D
:1005900094010E94F6092150310941095109CC23E7
:1005A00009F4EEC096E02F3F31054105510579F081
:1005B00074F08AE0F594E794D794C7948A95D1F7BC
:1005C000A7019601215031094109510997E0809115
:1005D000B100887F892B8093B100C13009F4A8C095
:1005E000C23009F4BAC0C11193CFE3C080930001B7
:1005F000E2ECF0E0C491CF3F09F48ACFC13039F189
:1006000048F0C23009F445C0C7FD82CF61E00E94C6
:10061000460295CF14BC15BC94B5926094BD95B5B7
:10062000916095BD282F30E0F901E255FF4FE4912C
:10063000F0E0EE0FFF1FEC55FF4F45915491F9018B
:10064000E057FF4FE491E0933401C0E070CF109287
:1006500080001092810090918100986090938100B9
:1006600090918100916090938100282F30E0F901F2
:10067000E255FF4FE491F0E0EE0FFF1FEC55FF4F06
:1006800045915491F901E057FF4FE491E093330114
:100690004ECF1092B0001092B1009091B0009260D5
:1006A0009093B0009091B10091609093B100282F89
:1006B00030E0F901E255FF4FE491F0E0EE0FFF1F4B
:1006C000EC55FF4F459154915093320140933101C5
:1006D000F901E057FF4FE491E093300128CF60E04B
:1006E00072E18AE790E0A70196010E94F609215085
:1006F00031094109510991E02115310581E048078F
:1007000051056CF068E478EE81E090E0A701960175
:100710000E94F609215031094109510993E0C13085
:1007200009F05BCF80918100887F892B80938100C5
:1007300030938900209388008FEF9FEFDC01809336
:10074000390190933A01A0933B01B0933C01809111
:100750006F00826080936F00DBCE2093B3008FEF39
:100760009FEFDC018093350190933601A093370110
:10077000B093380180917000826080937000C8CE81
:1007800094E02F3F31054105510579F074F09AE06E
:10079000F594E794D794C7949A95D1F7A701960159
:1007A000215031094109510995E085B5887F892B90
:1007B00085BD27BD8FEF9FEFDC0180933D019093B6
:1007C0003E01A0933F01B093400180916E00826092
:1007D00080936E009DCE1F93CF93DF93182FEB0174
:1007E00061E00E944602209739F460E0812FDF919A
:1007F000CF911F910C94EC01CF3FD10511F461E032
:10080000F5CFE12FF0E0EE58FF4FE491E33031F106
:1008100040F4E130B1F0E230E1F0C038D1057CF7CE
:10082000E4CFE73029F1E83059F1E430B1F78091B5
:100830008000806280938000D0938B00C0938A00F8
:1008400004C084B5806884BDC7BDDF91CF911F917E
:10085000089584B5806284BDC8BDF7CF80918000C3
:10086000806880938000D0938900C0938800EDCF8A
:100870008091B00080688093B000C093B300E5CF52
:100880008091B00080628093B000C093B400DDCF4F
:100890003FB7F89480912B0190912C01A0912D01EC
:1008A000B0912E0126B5A89B05C02F3F19F00196E7
:1008B000A11DB11D3FBFBA2FA92F982F8827BC01BA
:1008C000CD01620F711D811D911D42E0660F771FE2
:1008D000881F991F4A95D1F708958F929F92AF92E2
:1008E000BF92CF92DF92EF92FF924B015C010E9488
:1008F00048046B017C010E9448046C197D098E0933
:100900009F09683E734081059105A8F321E0821A92
:100910009108A108B10888EEC80E83E0D81EE11C3A
:10092000F11C81149104A104B10429F7FF90EF9008
:10093000DF90CF90BF90AF909F908F90089561E02F
:1009400088E00E94EC0170E060E089E00E94EB0327
:1009500061E08FE00E94460261E08FE00E94EC01BE
:1009600070E060E08AE00C94EB0361E088E00E94B4
:10097000EC0166E970E089E00E94EB0361E08FE042
:100980000E94460260E08FE00E94EC0166E970E0A0
:100990008AE00C94EB0360E088E00E94EC0166E9D9
:1009A00070E089E00E94EB0361E08FE00E94460264
:1009B00061E08FE00E94EC0166E970E08AE00C944F
:1009C000EB0360E088E00E94EC0166E970E089E0FA
:1009D0000E94EB0361E08FE00E94460260E08FE03E
:1009E0000E94EC0166E970E08AE00C94EB03FC01E4
:1009F00001900020E9F73197AF01481B590BBC016A
:100A000081E491E00C948D001F920F920FB60F922B
:100A100011242F933F934F935F936F937F938F9303
:100A20009F93AF93BF93EF93FF9380913501909184
:100A30003601A0913701B0913801892B8A2B8B2B7D
:100A4000D1F190913001E0913101F091320180813A
:100A5000892780838091350190913601A0913701DB
:100A6000B0913801181619061A061B069CF48091DD
:100A7000350190913601A0913701B091380101976D
:100A8000A109B1098093350190933601A0933701F4
:100A9000B0933801FF91EF91BF91AF919F918F91EA
:100AA0007F916F915F914F913F912F910F900FBE6A
:100AB0000F901F901895809100010E941A02EACFB2
:100AC0001F920F920FB60F9211242F933F934F93C3
:100AD0005F936F937F938F939F93AF93BF93EF93A6
:100AE000FF9381E491E00E940B01FF91EF91BF9190
:100AF000AF919F918F917F916F915F914F913F91B6
:100B00002F910F900FBE0F901F9018951F920F926C
:100B10000FB60F9211242F938F939F93EF93FF9310
:100B2000E0915101F09152018081E0915701F091E3
:100B3000580182FD1BC0908180915A018F5F8F7395
:100B400020915B01821741F0E0915A01F0E0EF5BE8
:100B5000FE4F958F80935A01FF91EF919F918F9156
:100B60002F910F900FBE0F901F9018958081F4CF9A
:100B70001F920F920FB60F9211242F933F938F93D2
:100B80009F93AF93BF938091270190912801A091EB
:100B90002901B0912A013091260123E0230F2D373E
:100BA00058F50196A11DB11D2093260180932701C0
:100BB00090932801A0932901B0932A0180912B01E1
:100BC00090912C01A0912D01B0912E010196A11DB3
:100BD000B11D80932B0190932C01A0932D01B09314
:100BE0002E01BF91AF919F918F913F912F910F90C7
:100BF0000FBE0F901F90189526E8230F0296A11D97
:100C0000B11DD2CFCF92DF92EF92FF920F931F933D
:100C1000E82FF92F05C0015011092109310961F1AF
:100C2000908196239417B9F305C001501109210949
:100C3000310911F1908196239413F7CFC12CD12C57
:100C4000E12CF12C0AC08FEFC81AD80AE80AF80A7A
:100C50000C151D052E053F0579F08081862384172C
:100C600091F36C2D7D2D8E2D9F2D1F910F91FF9057
:100C7000EF90DF90CF90089560E070E080E090E02A
:100C80001F910F91FF90EF90DF90CF900895CF9339
:100C9000DF93CDB7DEB7A1970FB6F894DEBF0FBED6
:100CA000CDBF789484B5826084BD84B5816084BDF5
:100CB00085B5826085BD85B5816085BD80916E00FA
:100CC000816080936E00109281008091810082602B
:100CD0008093810080918100816080938100809168
:100CE00080008160809380008091B1008460809357
:100CF000B1008091B00081608093B00080917A0053
:100D0000846080937A0080917A00826080937A0078
:100D100080917A00816080937A0080917A00806867
:100D200080937A001092C100E0915101F09152013C
:100D300082E08083E0914D01F0914E011082E091BC
:100D40004F01F09150018FEC808310925901E09196
:100D50005501F091560186E08083E0915301F091B6
:100D60005401808180618083E0915301F0915401AE
:100D7000808188608083E0915301F09154018081EB
:100D800080688083E0915301F091540180818F7DD0
:100D9000808360E085E00E94460260E084E00E947B
:100DA000460261E08AE00E94460261E089E00E941A
:100DB000460261E088E00E94460261E08FE00E9406
:100DC000460261E082E00E94460260E083E00E9409
:100DD000460293E2A92EB12C2AE0422E512C612C1E
:100DE000712C30E0232E30E0332E81E491E00E941C
:100DF000EB00181619067CF481E491E00E94C9000A
:100E000080932F01682F81E491E00E942D0183E1FE
:100E100091E00E94F70480912F01863461F40E94D2
:100E2000B5042114310409F30E94F7008823E9F284
:100E30000E940000DACF833519F40E949F04F1CF9D
:100E40008235B9F461E088E00E94EC016AE870E064
:100E500089E00E94EB0361E08FE00E94460261E0BE
:100E60008FE00E94EC0166E970E08AE00E94EB03EB
:100E7000D8CF8C3419F40E94E104D3CF8835C1F562
:100E800084E00E94C3018C0185E00E94C30101152A
:100E9000110599F4009719F2019719F661E088E0BD
:100EA0000E94EC016CE370E089E00E94EB0361E0DA
:100EB0008FE00E94460260E0D3CF0130110509F0B7
:100EC000B0CF892B09F0ADCF60E088E00E94EC0143
:100ED00066E970E089E00E94EB0361E08FE00E9428
:100EE000460260E08FE00E94EC016CE370E0BDCF51
:100EF000853509F08FC061E082E00E94EC01C501F8
:100F00000197F1F760E082E00E94EC01E3E9F0E094
:100F10006491E1EBF0E08491E82FF0E0EE0FFF1F29
:100F2000EA57FF4F8591949100E412E42FE030E0FE
:100F3000462F0E940206611571058105910529F071
:100F40006F5F7F4F8F4F9F4F9F700E94D90826E998
:100F500033E44BE85CE30E943F090E94A3086B0165
:100F60004B0186E191E00E94F70496010D2C000CE4
:100F7000440B550B19A28E010F5D1F4FCA01B90119
:100F8000A30192010E94D409605DF80162938F0170
:100F9000211531054105510589F7309719F0CF0129
:100FA0000E94F70481E291E00E94F70483E191E05E
:100FB0000E94F70462E370E080E090E00E946D041C
:100FC000F9E0CF1AD1088BEEC81681E0D80608F4F4
:100FD00026CFE9E08E1691040CF023CF892809F47E
:100FE00020CF0E949F0460E971E080E090E00E94C1
:100FF0006D040E94CB0460E971E080E090E00E9403
:101000006D040E94E10460E971E080E090E00E94DC
:101010006D0407CF823419F40E94CB0402CF8033D1
:1010200039F486E00E941A0287E00E941A02F9CE83
:10103000813359F46FE170E086E00E9477026FE13E
:1010400070E087E00E947702ECCE823341F469E2DF
:1010500070E086E00E94770269E270E0F2CF8333AD
:1010600041F46EE370E086E00E9477026EE370E088
:10107000E8CF843341F467E570E086E00E947702B0
:1010800067E570E0DECF853341F464E670E086E02A
:101090000E94770264E670E0D4CF863341F463E8BF
:1010A00070E086E00E94770263E870E0CACF873381
:1010B00041F464EC70E086E00E94770264EC70E03A
:1010C000C0CF883341F466E271E086E00E94770287
:1010D00066E271E0B6CF893309F0A3CE68EB71E028
:1010E00086E00E94770268EB71E0ABCFE1E4F1E0CB
:1010F0001382128288EE93E0A0E0B0E084839583AF
:10110000A683B78385E091E09183808385EC90E0AE
:101110009587848784EC90E09787868780EC90E0C1
:10112000918B808B81EC90E0938B828B82EC90E0B2
:10113000958B848B86EC90E0978B868B118E128E2C
:10114000138E148E08950E94AA086894B1110C940D
:10115000390908950E941E0988F09F5798F0B92F09
:101160009927B751B0F0E1F0660F771F881F991FDC
:101170001AF0BA95C9F714C0B13091F00E9438093D
:10118000B1E008950C943809672F782F8827B85F4D
:1011900039F0B93FCCF3869577956795B395D9F734
:1011A0003EF490958095709561957F4F8F4F9F4F3E
:1011B0000895E89409C097FB3EF49095809570954A
:1011C00061957F4F8F4F9F4F9923A9F0F92F96E993
:1011D000BB279395F695879577956795B795F11108
:1011E000F8CFFAF4BB0F11F460FF1BC06F5F7F4FA5
:1011F0008F4F9F4F16C0882311F096E911C07723B7
:1012000021F09EE8872F762F05C0662371F096E8BF
:10121000862F70E060E02AF09A95660F771F881F8E
:10122000DAF7880F9695879597F9089557FD9058A6
:10123000440F551F59F05F3F71F04795880F97FB9A
:10124000991F61F09F3F79F0879508951216130654
:101250001406551FF2CF4695F1DF08C01616170683
:101260001806991FF1CF86957105610508940895B8
:10127000E894BB2766277727CB0197F908950E944A
:1012800052090C94C3090E94B50938F00E94BC09A8
:1012900020F0952311F00C94AC090C94B2091124A0
:1012A0000C9439090E94160970F3959FC1F3950FAC
:1012B00050E0551F629FF001729FBB27F00DB11DDA
:1012C000639FAA27F00DB11DAA1F649F6627B00D6A
:1012D000A11D661F829F2227B00DA11D621F739F53
:1012E000B00DA11D621F839FA00D611D221F749F61
:1012F0003327A00D611D231F849F600D211D822FA8
:10130000762F6A2F11249F5750409AF0F1F08823CE
:101310004AF0EE0FFF1FBB1F661F771F881F9150FB
:101320005040A9F79E3F510580F00C94AC090C94F5
:1013300039095F3FE4F3983ED4F386957795679536
:10134000B795F795E7959F5FC1F7FE2B880F911D25
:101350009695879597F9089597F99F6780E870E0CB
:1013600060E008959FEF80EC089500240A9416161B
:10137000170618060906089500240A941216130683
:10138000140605060895092E0394000C11F4882311
:1013900052F0BB0F40F4BF2B11F460FF04C06F5F2D
:1013A0007F4F8F4F9F4F0895A1E21A2EAA1BBB1BA0
:1013B000FD010DC0AA1FBB1FEE1FFF1FA217B30721
:1013C000E407F50720F0A21BB30BE40BF50B661F37
:1013D000771F881F991F1A9469F7609570958095FB
:1013E00090959B01AC01BD01CF010895052E97FB9F
:1013F0001EF400940E940D0A57FD07D00E94D409E4
:1014000007FC03D04EF40C940D0A5095409530958E
:1014100021953F4F4F4F5F4F089590958095709560
:1014200061957F4F8F4F9F4F0895EE0FFF1F0590DF
:0A143000F491E02D0994F894FFCF29
:10143A00FF000000002D018D00BA007A01EB00C9FF
:10144A0000DD000D0A0064697374616E63653A20F9
:06145A000020636D00009C
:00000001FF
