:020000040000FA
:100000000C9463000C948B000C948B000C948B006C
:100010000C948B000C948B000C948B000C94540566
:100020000C948B000C948B000C948B000C948B0024
:100030000C948B000C948B000C948B000C948B0014
:100040000C940A050C948B000C94D6050C94B00506
:100050000C948B000C948B000C948B000C948B00F4
:100060000C948B000C948B000000000024002700EF
:100070002A000000000023002600290000000008DC
:10008000000201000003040700000000000000005F
:10009000010204081020408001020408102001021F
:1000A0000408102000000000250028002B00040494
:1000B0000404040404040202020202020303030310
:1000C00003030200740811241FBECFEFD8E0DEBF87
:1000D000CDBF11E0A0E0B1E0E6E3F4E102C005909D
:1000E0000D92A632B107D9F721E0A6E2B1E001C036
:1000F0001D92AE3DB207E1F710E0C3E6D0E004C0C8
:100100002197FE010E94130AC236D107C9F70E9447
:100110004D060C94190A0C940000833081F028F4E9
:10012000813099F08230A9F008958730A9F08830A5
:10013000C9F08430B1F4809180008F7D03C080913C
:1001400080008F7780938000089584B58F7784BD79
:10015000089584B58F7DFBCF8091B0008F77809319
:10016000B00008958091B0008F7DF9CFCF93DF93D9
:10017000282F30E0F901E458FF4F8491F901E0574E
:10018000FF4FD491F901E255FF4FC491CC23A1F068
:1001900081110E948D00EC2FF0E0EE0FFF1FEE5852
:1001A000FF4FA591B491EC91ED2381E090E009F42B
:1001B00080E0DF91CF91089580E090E0FACF1F9327
:1001C000CF93DF93282F30E0F901E458FF4F84915B
:1001D000F901E057FF4FD491F901E255FF4FC49167
:1001E000CC23A9F0162F81110E948D00EC2FF0E096
:1001F000EE0FFF1FEC55FF4FA591B4918FB7F89408
:10020000EC91111108C0D095DE23DC938FBFDF91F4
:10021000CF911F910895DE2BF8CFCF93DF9390E01D
:10022000FC01E057FF4F249182559F4FFC018491C0
:100230008823D1F090E0880F991FFC01E859FF4F07
:10024000A591B491FC01EC55FF4FC591D49161117A
:100250000EC09FB7F8948C91E22FE0958E238C937B
:100260002881E223E8839FBFDF91CF9108958FB764
:10027000F894EC91E22BEC938FBFF6CF8F929F9284
:10028000AF92BF92CF92DF92EF92FF92CF936B012A
:1002900090910001891769F09F3F09F46EC0CF91DA
:1002A000FF90EF90DF90CF90BF90AF909F908F9096
:1002B0000895E2ECF0E0C491C7FDF1CF61E00E9447
:1002C0000D014601B12CA12CCC23D1F0F12CE12C55
:1002D000C23009F0CBC04601570164E274EF80E000
:1002E00090E0A70196010E94F409215031094109CB
:1002F000510995E02F3F31054105510579F174F120
:1003000060E072E18AE790E0A50194010E94F4099F
:1003100069017A0162E17AE780E090E0A501940149
:100320000E94F4092150310941095109CC2309F4F3
:10033000EEC096E02F3F31054105510579F074F08C
:100340008AE0F594E794D794C7948A95D1F7A701EA
:100350009601215031094109510997E08091B1007E
:10036000887F892B8093B100C13009F4A8C0C230C6
:1003700009F4BAC0C11193CFE3C080930001E2EC4D
:10038000F0E0C491CF3F09F48ACFC13039F148F091
:10039000C23009F445C0C7FD82CF61E00E940D0163
:1003A00095CF14BC15BC94B5926094BD95B5916081
:1003B00095BD282F30E0F901E255FF4FE491F0E0C0
:1003C000EE0FFF1FEC55FF4F45915491F901E05797
:1003D000FF4FE491E0933401C0E070CF10928000B1
:1003E000109281009091810098609093810090918B
:1003F0008100916090938100282F30E0F901E2554F
:10040000FF4FE491F0E0EE0FFF1FEC55FF4F4591D9
:100410005491F901E057FF4FE491E09333014ECF3F
:100420001092B0001092B1009091B0009260909341
:10043000B0009091B10091609093B100282F30E00E
:10044000F901E255FF4FE491F0E0EE0FFF1FEC558C
:10045000FF4F459154915093320140933101F9017E
:10046000E057FF4FE491E093300128CF60E072E164
:100470008AE790E0A70196010E94F4092150310912
:100480004109510991E02115310581E048075105E5
:100490006CF068E478EE81E090E0A70196010E949C
:1004A000F409215031094109510993E0C13009F0A3
:1004B0005BCF80918100887F892B8093810030936E
:1004C0008900209388008FEF9FEFDC018093390132
:1004D00090933A01A0933B01B0933C0180916F004F
:1004E000826080936F00DBCE2093B3008FEF9FEF8D
:1004F000DC018093350190933601A0933701B093CE
:10050000380180917000826080937000C8CE94E0C2
:100510002F3F31054105510579F074F09AE0F594CB
:10052000E794D794C7949A95D1F7A70196012150E3
:1005300031094109510995E085B5887F892B85BD31
:1005400027BD8FEF9FEFDC0180933D0190933E012B
:10055000A0933F01B093400180916E008260809330
:100560006E009DCE1F93CF93DF93182FEB0161E0B8
:100570000E940D01209739F460E0812FDF91CF9127
:100580001F910C94DF00CF3FD10511F461E0F5CF4E
:10059000E12FF0E0E458FF4FE491E33031F140F413
:1005A000E130B1F0E230E1F0C038D1057CF7E4CFC2
:1005B000E73029F1E83059F1E430B1F7809180005B
:1005C000806280938000D0938B00C0938A0004C027
:1005D00084B5806884BDC7BDDF91CF911F91089518
:1005E00084B5806284BDC8BDF7CF809180008068EB
:1005F00080938000D0938900C0938800EDCF8091D4
:10060000B00080688093B000C093B300E5CF8091C4
:10061000B00080628093B000C093B400DDCF3FB7DC
:10062000F89480912C0190912D01A0912E01B09110
:100630002F0126B5A89B05C02F3F19F00196A11DDB
:10064000B11D3FBFBA2FA92F982F8827BC01CD011C
:10065000620F711D811D911D42E0660F771F881F7B
:10066000991F4A95D1F708958F929F92AF92BF92AA
:10067000CF92DF92EF92FF924B015C010E940F0339
:100680006B017C010E940F036C197D098E099F0983
:10069000683E734081059105A8F321E0821A910814
:1006A000A108B10888EEC80E83E0D81EE11CF11C39
:1006B00081149104A104B10429F7FF90EF90DF9019
:1006C000CF90BF90AF909F908F9008959091000130
:1006D00089130BC0E2ECF0E0E4919FEF90930001EE
:1006E000E13049F028F0E23061F060E00C94DF0086
:1006F00010926E00FACF90916F009D7F90936F00E3
:10070000F4CF909170009D7F9093700091E0909352
:10071000B0009091B100987F94609093B1001092D6
:10072000B300E3CFAF92BF92CF92DF92EF92FF92EE
:100730000F931F93CF93DF936C017B018B01040F09
:10074000151FEB015E01AE18BF08C017D10759F0A5
:100750006991D601ED91FC910190F081E02DC601E7
:100760000995892B79F7C501DF91CF911F910F91E1
:10077000FF90EF90DF90CF90BF90AF900895FC0175
:10078000538D448D252F30E0842F90E0821B930BF6
:10079000541710F0CF96089501970895FC01918D9C
:1007A000828D981761F0A28DAE0FBF2FB11D5D969F
:1007B0008C91928D9F5F9F73928F90E008958FEF41
:1007C0009FEF0895FC01918D828D981731F0828DF5
:1007D000E80FF11D858D90E008958FEF9FEF08954C
:1007E000FC01918D228D892F90E0805C9F4F821BB0
:1007F00091098F739927089581E491E00E94F00395
:1008000021E0892B09F420E0822F089580E090E018
:10081000892B29F00E94FC0381110C94000008959B
:10082000FC01A48DA80FB92FB11DA35ABF4F2C9165
:10083000848D90E001968F739927848FA689B7895C
:100840002C93A089B1898C91837080648C93938D53
:10085000848D981306C00288F389E02D80818F7DF6
:1008600080830895EF92FF920F931F93CF93DF93AE
:10087000EC0181E0888F9B8D8C8D98131AC0E889DC
:10088000F989808185FF15C09FB7F894EE89FF89AB
:100890006083E889F98980818370806480839FBF49
:1008A00081E090E0DF91CF911F910F91FF90EF9049
:1008B0000895F62E0B8D10E00F5F1F4F0F73112759
:1008C000E02E8C8D8E110CC00FB607FCFACFE88994
:1008D000F989808185FFF5CFCE010E941004F1CF08
:1008E000EB8DEC0FFD2FF11DE35AFF4FF0829FB708
:1008F000F8940B8FEA89FB8980818062CFCFCF93F8
:10090000DF93EC01888D8823B9F0AA89BB89E88937
:10091000F9898C9185FD03C0808186FD0DC00FB6DD
:1009200007FCF7CF8C9185FFF2CF808185FFEDCF5B
:10093000CE010E941004E9CFDF91CF91089561E0CC
:1009400088E00E94DF0070E060E089E00E94B2026F
:1009500061E08FE00E940D0161E08FE00E94DF0006
:1009600070E060E08AE00E94B20286E00E946603C6
:1009700087E00C94660360E088E00E94DF0066E98F
:1009800070E089E00E94B20261E08FE00E940D01F8
:1009900060E08FE00E94DF0066E970E08AE00C947E
:1009A000B20261E088E00E94DF0066E970E089E061
:1009B0000E94B20261E08FE00E940D0161E08FE0D1
:1009C0000E94DF0066E970E08AE00C94B20261E008
:1009D00088E00E94DF0066E970E089E00E94B202D0
:1009E00061E08FE00E940D0160E08FE00E94DF0077
:1009F00066E970E08AE00C94B202FC0101900020EC
:100A0000E9F73197AF01481B590BBC0181E491E034
:100A10000C9492031F920F920FB60F9211242F93F2
:100A20003F938F939F93AF93BF93809128019091B1
:100A30002901A0912A01B0912B013091270123E0D7
:100A4000230F2D3758F50196A11DB11D20932701C5
:100A50008093280190932901A0932A01B0932B0140
:100A600080912C0190912D01A0912E01B0912F0128
:100A70000196A11DB11D80932C0190932D01A0938F
:100A80002E01B0932F01BF91AF919F918F913F9114
:100A90002F910F900FBE0F901F90189526E8230FEF
:100AA0000296A11DB11DD2CF1F920F920FB60F92C9
:100AB00011242F933F934F935F936F937F938F9363
:100AC0009F93AF93BF93EF93FF93809135019091E4
:100AD0003601A0913701B0913801892B8A2B8B2BDD
:100AE000D1F190913001E0913101F091320180819A
:100AF000892780838091350190913601A09137013B
:100B0000B0913801181619061A061B069CF480913C
:100B1000350190913601A0913701B09138010197CC
:100B2000A109B1098093350190933601A093370153
:100B3000B0933801FF91EF91BF91AF919F918F9149
:100B40007F916F915F914F913F912F910F900FBEC9
:100B50000F901F901895809100010E946603EACFC4
:100B60001F920F920FB60F9211242F933F934F9322
:100B70005F936F937F938F939F93AF93BF93EF9305
:100B8000FF9381E491E00E941004FF91EF91BF91E7
:100B9000AF919F918F917F916F915F914F913F9115
:100BA0002F910F900FBE0F901F9018951F920F92CC
:100BB0000FB60F9211242F938F939F93EF93FF9370
:100BC000E0915101F09152018081E0915701F09143
:100BD000580182FD1BC0908180915A018F5F8F73F5
:100BE00020915B01821741F0E0915A01F0E0EF5B48
:100BF000FE4F958F80935A01FF91EF919F918F91B6
:100C00002F910F900FBE0F901F9018958081F4CFF9
:100C1000CF92DF92EF92FF920F931F93E82FF92F5D
:100C200005C0015011092109310961F19081962314
:100C30009417B9F305C0015011092109310911F1C7
:100C4000908196239413F7CFC12CD12CE12CF12C59
:100C50000AC08FEFC81AD80AE80AF80A0C151D0551
:100C60002E053F0579F080818623841791F36C2D42
:100C70007D2D8E2D9F2D1F910F91FF90EF90DF9076
:100C8000CF90089560E070E080E090E01F910F91B8
:100C9000FF90EF90DF90CF900895CF93DF93CDB783
:100CA000DEB7A1970FB6F894DEBF0FBECDBF789424
:100CB00084B5826084BD84B5816084BD85B5826061
:100CC00085BD85B5816085BD80916E008160809312
:100CD0006E0010928100809181008260809381007B
:100CE000809181008160809381008091800081608B
:100CF000809380008091B10084608093B1008091E6
:100D0000B00081608093B00080917A00846080930D
:100D10007A0080917A00826080937A0080917A00D4
:100D2000816080937A0080917A00806880937A0055
:100D30001092C100E0915101F091520182E0808354
:100D4000E0914D01F0914E011082E0914F01F09140
:100D500050018FEC808310925901E0915501F09180
:100D6000560186E08083E0915301F0915401808127
:100D700080618083E0915301F0915401808188600B
:100D80008083E0915301F0915401808180688083D9
:100D9000E0915301F091540180818F7D808360E068
:100DA00085E00E940D0160E084E00E940D0161E099
:100DB0008AE00E940D0161E089E00E940D0161E07E
:100DC00088E00E940D0161E08FE00E940D0161E06A
:100DD00082E00E940D0160E083E00E940D0193E239
:100DE000A92EB12C2AE0422E512C612C712C30E01E
:100DF000232E30E0332E81E491E00E94F003181698
:100E000019067CF481E491E00E94CE0380932601D0
:100E1000682F81E491E00E94320483E191E00E9416
:100E2000FD0480912601863461F40E94BB042114E4
:100E3000310409F30E94FC038823E9F20E940000B8
:100E4000DACF833519F40E949F04F1CF8235B9F4CB
:100E500060E088E00E94DF0066E970E089E00E94BF
:100E6000B20261E08FE00E940D0161E08FE00E941C
:100E7000DF0066E970E08AE00E94B202D8CF8C34CD
:100E800019F40E94E704D3CF883581F584E00E94ED
:100E9000B6008C0185E00E94B6000115110559F4D9
:100EA000009719F2019719F660E088E00E94DF00D0
:100EB0006CE370E0D3CF0130110509F0B8CF892B76
:100EC00009F0B5CF61E088E00E94DF0066E970E0DC
:100ED00089E00E94B20261E08FE00E940D0160E0B3
:100EE0008FE00E94DF006CE370E0C5CF853509F02C
:100EF0008FC061E082E00E94DF00C5010197F1F739
:100F000060E082E00E94DF00E3E9F0E06491E1EB61
:100F1000F0E08491E82FF0E0EE0FFF1FEE58FF4F56
:100F20008591949100E412E42FE030E0462F0E9476
:100F30000806611571058105910529F06F5F7F4FE6
:100F40008F4F9F4F9F700E94D70826E933E44BE8EC
:100F50005CE30E943D090E94A1086B014B0186E100
:100F600091E00E94FD0496010D2C000C440B550BE2
:100F700019A28E010F5D1F4FCA01B901A301920191
:100F80000E94D209605DF80162938F01211531053D
:100F90004105510589F7309719F0CF010E94FD04F2
:100FA00081E291E00E94FD0483E191E00E94FD0452
:100FB00062E370E080E090E00E943403F9E0CF1A31
:100FC000D1088BEEC81681E0D80608F42ECFE9E0F0
:100FD0008E1691040CF02BCF892809F428CF0E949B
:100FE0009F0460E971E080E090E00E9434030E9479
:100FF000D10460E971E080E090E00E9434030E9437
:10100000E70460E971E080E090E00E9434030FCFD4
:10101000823419F40E94D1040ACF803339F486E077
:101020000E94660387E00E94660301CF813359F472
:101030006FE170E086E00E943E016FE170E087E0C2
:101040000E943E01F4CE823341F469E270E086E012
:101050000E943E0169E270E0F2CF833341F46EE317
:1010600070E086E00E943E016EE370E0E8CF8433DA
:1010700041F467E570E086E00E943E0167E570E0BC
:10108000DECF853341F464E670E086E00E943E01E5
:1010900064E670E0D4CF863341F463E870E086E024
:1010A0000E943E0163E870E0CACF873341F464ECEC
:1010B00070E086E00E943E0164EC70E0C0CF8833AF
:1010C00041F466E271E086E00E943E0166E271E072
:1010D000B6CF893309F0ABCE68EB71E086E00E94B1
:1010E0003E0168EB71E0ABCFE1E4F1E013821282E4
:1010F00088EE93E0A0E0B0E084839583A683B78375
:1011000085E091E09183808385EC90E095878487EA
:1011100084EC90E09787868780EC90E0918B808BC1
:1011200081EC90E0938B828B82EC90E0958B848BAA
:1011300086EC90E0978B868B118E128E138E148E18
:1011400008950E94A8086894B1110C943709089575
:101150000E941C0988F09F5798F0B92F9927B75122
:10116000B0F0E1F0660F771F881F991F1AF0BA954B
:10117000C9F714C0B13091F00E943609B1E008956A
:101180000C943609672F782F8827B85F39F0B93F5C
:10119000CCF3869577956795B395D9F73EF49095FE
:1011A0008095709561957F4F8F4F9F4F0895E8947C
:1011B00009C097FB3EF490958095709561957F4F9F
:1011C0008F4F9F4F9923A9F0F92F96E9BB2793954D
:1011D000F695879577956795B795F111F8CFFAF45D
:1011E000BB0F11F460FF1BC06F5F7F4F8F4F9F4F8E
:1011F00016C0882311F096E911C0772321F09EE8EC
:10120000872F762F05C0662371F096E8862F70E051
:1012100060E02AF09A95660F771F881FDAF7880F2B
:101220009695879597F9089557FD9058440F551F47
:1012300059F05F3F71F04795880F97FB991F61F058
:101240009F3F79F087950895121613061406551FCF
:10125000F2CF4695F1DF08C0161617061806991F3B
:10126000F1CF86957105610508940895E894BB2730
:1012700066277727CB0197F908950E9450090C94AF
:10128000C1090E94B30938F00E94BA0920F09523E1
:1012900011F00C94AA090C94B00911240C9437098C
:1012A0000E94140970F3959FC1F3950F50E0551FEC
:1012B000629FF001729FBB27F00DB11D639FAA27AB
:1012C000F00DB11DAA1F649F6627B00DA11D661FFA
:1012D000829F2227B00DA11D621F739FB00DA11D1B
:1012E000621F839FA00D611D221F749F3327A00DD5
:1012F000611D231F849F600D211D822F762F6A2F71
:1013000011249F5750409AF0F1F088234AF0EE0FD5
:10131000FF1FBB1F661F771F881F91505040A9F702
:101320009E3F510580F00C94AA090C9437095F3F49
:10133000E4F3983ED4F3869577956795B795F7953E
:10134000E7959F5FC1F7FE2B880F911D96958795B6
:1013500097F9089597F99F6780E870E060E0089535
:101360009FEF80EC089500240A94161617061806BD
:101370000906089500240A94121613061406050699
:101380000895092E0394000C11F4882352F0BB0F2A
:1013900040F4BF2B11F460FF04C06F5F7F4F8F4F8D
:1013A0009F4F0895A1E21A2EAA1BBB1BFD010DC081
:1013B000AA1FBB1FEE1FFF1FA217B307E407F50705
:1013C00020F0A21BB30BE40BF50B661F771F881FE1
:1013D000991F1A9469F760957095809590959B0177
:1013E000AC01BD01CF010895052E97FB1EF40094BA
:1013F0000E940B0A57FD07D00E94D20907FC03D0B8
:101400004EF40C940B0A50954095309521953F4F22
:101410004F4F5F4F089590958095709561957F4FE0
:101420008F4F9F4F0895EE0FFF1F0590F491E02D11
:101430000994F894FFCFFF0000000032049203BF2C
:10144000037F04F003CE03E2030D0A0064697374A2
:0C145000616E63653A200020636D0000AF
:107E0000112484B714BE81FFF0D085E080938100F7
:107E100082E08093C00088E18093C10086E0809377
:107E2000C20080E18093C4008EE0C9D0259A86E02C
:107E300020E33CEF91E0309385002093840096BBD3
:107E4000B09BFECF1D9AA8958150A9F7CC24DD24C4
:107E500088248394B5E0AB2EA1E19A2EF3E0BF2EE7
:107E6000A2D0813461F49FD0082FAFD0023811F036
:107E7000013811F484E001C083E08DD089C08234E0
:107E800011F484E103C0853419F485E0A6D080C0E4
:107E9000853579F488D0E82EFF2485D0082F10E0AE
:107EA000102F00270E291F29000F111F8ED06801E7
:107EB0006FC0863521F484E090D080E0DECF843638
:107EC00009F040C070D06FD0082F6DD080E0C81688
:107ED00080E7D80618F4F601B7BEE895C0E0D1E017
:107EE00062D089930C17E1F7F0E0CF16F0E7DF06D8
:107EF00018F0F601B7BEE89568D007B600FCFDCFD4
:107F0000A601A0E0B1E02C9130E011968C91119780
:107F100090E0982F8827822B932B1296FA010C0160
:107F200087BEE89511244E5F5F4FF1E0A038BF0790
:107F300051F7F601A7BEE89507B600FCFDCF97BE46
:107F4000E89526C08437B1F42ED02DD0F82E2BD052
:107F50003CD0F601EF2C8F010F5F1F4F84911BD097
:107F6000EA94F801C1F70894C11CD11CFA94CF0C13
:107F7000D11C0EC0853739F428D08EE10CD085E9AC
:107F80000AD08FE07ACF813511F488E018D01DD067
:107F900080E101D065CF982F8091C00085FFFCCF94
:107FA0009093C60008958091C00087FFFCCF809118
:107FB000C00084FD01C0A8958091C6000895E0E648
:107FC000F0E098E1908380830895EDDF803219F02E
:107FD00088E0F5DFFFCF84E1DECF1F93182FE3DFCA
:107FE0001150E9F7F2DF1F91089580E0E8DFEE27F6
:047FF000FF270994CA
:027FFE00040479
:00000001FF
